00210104102022111700000042NR0000000000000000000000000000009903RET. IMP. GANANCIAS --PROVEEDORES Y CONTRATISTAS - AFIP     0000000000000000000000GC121856288242000018307846080EATTUR    402RET. IMP. GANANCIAS --PROVEEDORES Y CONTRATISTAS - AFIP     20221117GCGASTO CORRIENTEOGA        
00210104102022111700000043NR0000000000000000000000000000000904S.G.P. SIST. PENS. JUB. RETENC. PERSONAL                    0000000000000000000000GC121856288254000009176323080EATTUR    409RES. GRAL 1784-SUSS-PROVEEDORES                             20221117GCGASTO CORRIENTEOGA        
00210104102022111400000041NR0000000000000000000000020124912378CERVIï¿½O, HUGO ALBERTO                                       0000000000000000000000GC121856281474000890148132080EATTUR    000                                                            20221114GCGASTO CORRIENTEOGA        
00210507262022110100000052NR0000000000000000000000020217443475PAZ POSSE FELIX JOSE                                        0000000000000000000000GC115678269096000000800000080EATTUR    000                                                            20221101GCGASTO CORRIENTEOGA        
00210507262022110700000053NR0000000000000000000000030716645513EVENTOS & CO S.A.S.                                         0000000000000000000000GC118225272818000044239795180EATTUR    000                                                            20221107GCGASTO CORRIENTEOGA        
00210507262022111700000054NR0000000000000000000000000000000901D.G.R. ING.BRUTOS P/PAG. ELECTR.                            0000000000000000000000GC118225288026000000825558780EATTUR    101DGR INGRESOS BRUTOS                                         20221117GCGASTO CORRIENTEOGA        
00210507262022111700000055NR0000000000000000000000000000009133TRIBUTO DE EMERGENCIA MUNICIPAL- TEM                        0000000000000000000000GC118225288027000001179369680EATTUR    133TRIBUTO ECONOMICO MUNICIPAL- TEM                            20221117GCGASTO CORRIENTEOGA        
00210507262022111700000056NR0000000000000000000000000000009903RET. IMP. GANANCIAS --PROVEEDORES Y CONTRATISTAS - AFIP     0000000000000000000000GC118225288032000000930061780EATTUR    402RET. IMP. GANANCIAS --PROVEEDORES Y CONTRATISTAS - AFIP     20221117GCGASTO CORRIENTEOGA        
00210507262022112500000057NR0000000000000000000000020267832782VIRUEL DIEGO MARTIN                                         0000000000000000000000GC126930296570000010000000080EATTUR    000                                                            20221125GCGASTO CORRIENTEOGA        
00210507262022112500000058NR0000000000000000000000030697217823FEDERACION DE CAMARAS DE TUR. DE LA REP. ARG. FE DE CA TUR  0000000000000000000000GC126954296609000079700000080EATTUR    000                                                            20221125GCGASTO CORRIENTEOGA        
00210507262022112500000059NR0000000000000000000000020267832782VIRUEL DIEGO MARTIN                                         0000000000000000000000GC127013296655000000992559080EATTUR    000                                                            20221125GCGASTO CORRIENTEOGA        
00210507262022112500000060NR0000000000000000000000020286810684RIOS DIEGO ALBERTO                                          0000000000000000000000GC127040296715000002736634080EATTUR    000                                                            20221125GCGASTO CORRIENTEOGA        
00210507262022112500000061NR0000000000000000000000020286810684RIOS DIEGO ALBERTO                                          0000000000000000000000GC127079296817000002688794080EATTUR    000                                                            20221125GCGASTO CORRIENTEOGA        
00210507262022120600000063TG0000000052860000000000000000000901D.G.R. ING.BRUTOS P/PAG. ELECTR.                            0000000000000000000000GC127013307921000000036750080EATTUR    101DGR INGRESOS BRUTOS                                         20221206GCGASTO CORRIENTEOGA        
00210507262022120600000063TG0000000052860000000000000000000901D.G.R. ING.BRUTOS P/PAG. ELECTR.                            0000000000000000000000GC127040307922000000103600080EATTUR    101DGR INGRESOS BRUTOS                                         20221206GCGASTO CORRIENTEOGA        
00210507262022120600000063TG0000000052860000000000000000000901D.G.R. ING.BRUTOS P/PAG. ELECTR.                            0000000000000000000000GC127079307923000000101780080EATTUR    101DGR INGRESOS BRUTOS                                         20221206GCGASTO CORRIENTEOGA        
00210507262022120600000064TG0000000052870000000000000000009903RET. IMP. GANANCIAS --PROVEEDORES Y CONTRATISTAS - AFIP     0000000000000000000000GC127013307929000000007566080EATTUR    402RET. IMP. GANANCIAS --PROVEEDORES Y CONTRATISTAS - AFIP     20221206GCGASTO CORRIENTEOGA        
00210507262022120600000064TG0000000052870000000000000000009903RET. IMP. GANANCIAS --PROVEEDORES Y CONTRATISTAS - AFIP     0000000000000000000000GC127040307930000000045766080EATTUR    402RET. IMP. GANANCIAS --PROVEEDORES Y CONTRATISTAS - AFIP     20221206GCGASTO CORRIENTEOGA        
00210507262022120600000064TG0000000052870000000000000000009903RET. IMP. GANANCIAS --PROVEEDORES Y CONTRATISTAS - AFIP     0000000000000000000000GC127079307931000000044726080EATTUR    402RET. IMP. GANANCIAS --PROVEEDORES Y CONTRATISTAS - AFIP     20221206GCGASTO CORRIENTEOGA        
00210507262022120600000065TG0000000052880000000000000000009133TRIBUTO DE EMERGENCIA MUNICIPAL- TEM                        0000000000000000000000GC127013307939000000013125080EATTUR    133TRIBUTO ECONOMICO MUNICIPAL- TEM                            20221206GCGASTO CORRIENTEOGA        
00210507262022120600000065TG0000000052880000000000000000009133TRIBUTO DE EMERGENCIA MUNICIPAL- TEM                        0000000000000000000000GC127040307940000000074000080EATTUR    133TRIBUTO ECONOMICO MUNICIPAL- TEM                            20221206GCGASTO CORRIENTEOGA        
00210507262022120600000065TG0000000052880000000000000000009133TRIBUTO DE EMERGENCIA MUNICIPAL- TEM                        0000000000000000000000GC127079307941000000072700080EATTUR    133TRIBUTO ECONOMICO MUNICIPAL- TEM                            20221206GCGASTO CORRIENTEOGA        
00210507262022120100000062NR0000000000000000000000030716645513EVENTOS & CO S.A.S.                                         0000000000000000000000GC129357303059000007502292480EATTUR    000                                                            20221201GCGASTO CORRIENTEOGA        
00210515292022110900000024NR0000000000000000000000030546670240UNIVERSIDAD NACIONAL DE TUCUMAN U.N.T.                      0000000000000000000000GC119777276782000001552500080EATTUR    000                                                            20221109GCGASTO CORRIENTEOGA        
00210515292022110300000023NR0000000000000000000000030707442642OSYM SRL.                                                   0000000000000000000000GC117050271040000003456981780EATTUR    000                                                            20221103GCGASTO CORRIENTEOGA        
00210515292022111700000025NR0000000000000000000000000000000901D.G.R. ING.BRUTOS P/PAG. ELECTR.                            0000000000000000000000GC117050288012000000044543580EATTUR    101DGR INGRESOS BRUTOS                                         20221117GCGASTO CORRIENTEOGA        
00210515292022111700000026NR0000000000000000000000000000009903RET. IMP. GANANCIAS --PROVEEDORES Y CONTRATISTAS - AFIP     0000000000000000000000GC117050288014000000014100580EATTUR    402RET. IMP. GANANCIAS --PROVEEDORES Y CONTRATISTAS - AFIP     20221117GCGASTO CORRIENTEOGA        
00210515292022111700000027NR0000000000000000000000000000000904S.G.P. SIST. PENS. JUB. RETENC. PERSONAL                    0000000000000000000000GC117050288016000000029450280EATTUR    409RES. GRAL 1784-SUSS-PROVEEDORES                             20221117GCGASTO CORRIENTEOGA        
00210515292022111700000028NR0000000000000000000000000000009133TRIBUTO DE EMERGENCIA MUNICIPAL- TEM                        0000000000000000000000GC117050288020000000018406480EATTUR    133TRIBUTO ECONOMICO MUNICIPAL- TEM                            20221117GCGASTO CORRIENTEOGA        
00710921022022110100000227NR0000000000000000000000030715017829A4  INDUSTRIAS  GRAFICAS   S.A                              0000000000000000000000GC115789269110000000536816680EATTUR    000                                                            20221101GCGASTO CORRIENTEOGA        
00710921022022111700000240NR0000000000000000000000027170420832ARAOZ LUCIANA                                               0000000000000000000000GC123858287892000006094475080EATTUR    000                                                            20221117GCGASTO CORRIENTEOGA        
00710921022022111700000245NR0000000000000000000000027170420832ARAOZ LUCIANA                                               0000000000000000000000GC123929288709000006914837380EATTUR    000                                                            20221117GCGASTO CORRIENTEOGA        
00710921022022111700000246NR0000000000000000000000027170420832ARAOZ LUCIANA                                               0000000000000000000000GC123907288714000005578881380EATTUR    000                                                            20221117GCGASTO CORRIENTEOGA        
00710921022022112200000250NR0000000000000000000000020269709716BUSTOS HECTOR ROBERTO                                       0000000000000000000000GC125045292039000006727884080EATTUR    000                                                            20221122GCGASTO CORRIENTEOGA        
00710921022022112200000247NR0000000000000000000000027170420832ARAOZ LUCIANA                                               0000000000000000000000GC124963291821000003363834680EATTUR    000                                                            20221122GCGASTO CORRIENTEOGA        
00710921022022112200000248NR0000000000000000000000027170420832ARAOZ LUCIANA                                               0000000000000000000000GC125006291883000004743282180EATTUR    000                                                            20221122GCGASTO CORRIENTEOGA        
00710921022022112200000249NR0000000000000000000000027170420832ARAOZ LUCIANA                                               0000000000000000000000GC125039291922000006199914480EATTUR    000                                                            20221122GCGASTO CORRIENTEOGA        
00710921022022110300000228NR0000000000000000000000027170420832ARAOZ LUCIANA                                               0000000000000000000000GC116987270936000006942635280EATTUR    000                                                            20221103GCGASTO CORRIENTEOGA        
00710921022022110300000229NR0000000000000000000000027170420832ARAOZ LUCIANA                                               0000000000000000000000GC117014271021000006991651880EATTUR    000                                                            20221103GCGASTO CORRIENTEOGA        
00710921022022110300000230NR0000000000000000000000027170420832ARAOZ LUCIANA                                               0000000000000000000000GC117022271029000006978793380EATTUR    000                                                            20221103GCGASTO CORRIENTEOGA        
00710921022022110400000231NR0000000000000000000000027170420832ARAOZ LUCIANA                                               0000000000000000000000GC117335271285000005739567580EATTUR    000                                                            20221104GCGASTO CORRIENTEOGA        
00710921022022111700000241TG0000000050100000000000000000000901D.G.R. ING.BRUTOS P/PAG. ELECTR.                            0000000000000000000000GC115789288300000000008476080EATTUR    101DGR INGRESOS BRUTOS                                         20221117GCGASTO CORRIENTEOGA        
00710921022022111700000241TG0000000050100000000000000000000901D.G.R. ING.BRUTOS P/PAG. ELECTR.                            0000000000000000000000GC116987288301000000259381880EATTUR    101DGR INGRESOS BRUTOS                                         20221117GCGASTO CORRIENTEOGA        
00710921022022111700000241TG0000000050100000000000000000000901D.G.R. ING.BRUTOS P/PAG. ELECTR.                            0000000000000000000000GC117014288302000000261216780EATTUR    101DGR INGRESOS BRUTOS                                         20221117GCGASTO CORRIENTEOGA        
00710921022022111700000241TG0000000050100000000000000000000901D.G.R. ING.BRUTOS P/PAG. ELECTR.                            0000000000000000000000GC117022288303000000260735380EATTUR    101DGR INGRESOS BRUTOS                                         20221117GCGASTO CORRIENTEOGA        
00710921022022111700000241TG0000000050100000000000000000000901D.G.R. ING.BRUTOS P/PAG. ELECTR.                            0000000000000000000000GC117335288304000000214347280EATTUR    101DGR INGRESOS BRUTOS                                         20221117GCGASTO CORRIENTEOGA        
00710921022022111700000241TG0000000050100000000000000000000901D.G.R. ING.BRUTOS P/PAG. ELECTR.                            0000000000000000000000GC122633288305000000018496080EATTUR    101DGR INGRESOS BRUTOS                                         20221117GCGASTO CORRIENTEOGA        
00710921022022111700000241TG0000000050100000000000000000000901D.G.R. ING.BRUTOS P/PAG. ELECTR.                            0000000000000000000000GC122684288306000000018496080EATTUR    101DGR INGRESOS BRUTOS                                         20221117GCGASTO CORRIENTEOGA        
00710921022022111700000241TG0000000050100000000000000000000901D.G.R. ING.BRUTOS P/PAG. ELECTR.                            0000000000000000000000GC122692288307000000018496080EATTUR    101DGR INGRESOS BRUTOS                                         20221117GCGASTO CORRIENTEOGA        
00710921022022111500000236NR0000000000000000000000030714140252PROVIDERS S.A.                                              0000000000000000000000GC122692283101000000709323080EATTUR    000                                                            20221115GCGASTO CORRIENTEOGA        
00710921022022111500000237NR0000000000000000000000030714140252PROVIDERS S.A.                                              0000000000000000000000GC122684283104000000709323080EATTUR    000                                                            20221115GCGASTO CORRIENTEOGA        
00710921022022111500000238NR0000000000000000000000030714140252PROVIDERS S.A.                                              0000000000000000000000GC122633283237000000709323080EATTUR    000                                                            20221115GCGASTO CORRIENTEOGA        
00710921022022111700000242TG0000000050120000000000000000000904S.G.P. SIST. PENS. JUB. RETENC. PERSONAL                    0000000000000000000000GC115789288392000000005650780EATTUR    409RES. GRAL 1784-SUSS-PROVEEDORES                             20221117GCGASTO CORRIENTEOGA        
00710921022022111700000242TG0000000050120000000000000000000904S.G.P. SIST. PENS. JUB. RETENC. PERSONAL                    0000000000000000000000GC116987288393000000074109080EATTUR    409RES. GRAL 1784-SUSS-PROVEEDORES                             20221117GCGASTO CORRIENTEOGA        
00710921022022111700000242TG0000000050120000000000000000000904S.G.P. SIST. PENS. JUB. RETENC. PERSONAL                    0000000000000000000000GC117014288394000000074633380EATTUR    409RES. GRAL 1784-SUSS-PROVEEDORES                             20221117GCGASTO CORRIENTEOGA        
00710921022022111700000242TG0000000050120000000000000000000904S.G.P. SIST. PENS. JUB. RETENC. PERSONAL                    0000000000000000000000GC117022288395000000074495880EATTUR    409RES. GRAL 1784-SUSS-PROVEEDORES                             20221117GCGASTO CORRIENTEOGA        
00710921022022111700000242TG0000000050120000000000000000000904S.G.P. SIST. PENS. JUB. RETENC. PERSONAL                    0000000000000000000000GC117335288396000000061242080EATTUR    409RES. GRAL 1784-SUSS-PROVEEDORES                             20221117GCGASTO CORRIENTEOGA        
00710921022022111700000242TG0000000050120000000000000000000904S.G.P. SIST. PENS. JUB. RETENC. PERSONAL                    0000000000000000000000GC122633288397000000007398480EATTUR    409RES. GRAL 1784-SUSS-PROVEEDORES                             20221117GCGASTO CORRIENTEOGA        
00710921022022111700000242TG0000000050120000000000000000000904S.G.P. SIST. PENS. JUB. RETENC. PERSONAL                    0000000000000000000000GC122684288398000000007398480EATTUR    409RES. GRAL 1784-SUSS-PROVEEDORES                             20221117GCGASTO CORRIENTEOGA        
00710921022022111700000242TG0000000050120000000000000000000904S.G.P. SIST. PENS. JUB. RETENC. PERSONAL                    0000000000000000000000GC122692288399000000007398480EATTUR    409RES. GRAL 1784-SUSS-PROVEEDORES                             20221117GCGASTO CORRIENTEOGA        
00710921022022111700000243TG0000000050130000000000000000009903RET. IMP. GANANCIAS --PROVEEDORES Y CONTRATISTAS - AFIP     0000000000000000000000GC116987288418000000134784080EATTUR    402RET. IMP. GANANCIAS --PROVEEDORES Y CONTRATISTAS - AFIP     20221117GCGASTO CORRIENTEOGA        
00710921022022111700000243TG0000000050130000000000000000009903RET. IMP. GANANCIAS --PROVEEDORES Y CONTRATISTAS - AFIP     0000000000000000000000GC117014288419000000135832680EATTUR    402RET. IMP. GANANCIAS --PROVEEDORES Y CONTRATISTAS - AFIP     20221117GCGASTO CORRIENTEOGA        
00710921022022111700000243TG0000000050130000000000000000009903RET. IMP. GANANCIAS --PROVEEDORES Y CONTRATISTAS - AFIP     0000000000000000000000GC117022288420000000135557680EATTUR    402RET. IMP. GANANCIAS --PROVEEDORES Y CONTRATISTAS - AFIP     20221117GCGASTO CORRIENTEOGA        
00710921022022111700000243TG0000000050130000000000000000009903RET. IMP. GANANCIAS --PROVEEDORES Y CONTRATISTAS - AFIP     0000000000000000000000GC117335288421000000109050180EATTUR    402RET. IMP. GANANCIAS --PROVEEDORES Y CONTRATISTAS - AFIP     20221117GCGASTO CORRIENTEOGA        
00710921022022111700000244TG0000000050140000000000000000009133TRIBUTO DE EMERGENCIA MUNICIPAL- TEM                        0000000000000000000000GC115789288434000000014126780EATTUR    133TRIBUTO ECONOMICO MUNICIPAL- TEM                            20221117GCGASTO CORRIENTEOGA        
00710921022022111700000244TG0000000050140000000000000000009133TRIBUTO DE EMERGENCIA MUNICIPAL- TEM                        0000000000000000000000GC122633288435000000004624080EATTUR    133TRIBUTO ECONOMICO MUNICIPAL- TEM                            20221117GCGASTO CORRIENTEOGA        
00710921022022111700000244TG0000000050140000000000000000009133TRIBUTO DE EMERGENCIA MUNICIPAL- TEM                        0000000000000000000000GC122684288436000000004624080EATTUR    133TRIBUTO ECONOMICO MUNICIPAL- TEM                            20221117GCGASTO CORRIENTEOGA        
00710921022022111700000244TG0000000050140000000000000000009133TRIBUTO DE EMERGENCIA MUNICIPAL- TEM                        0000000000000000000000GC122692288437000000004624080EATTUR    133TRIBUTO ECONOMICO MUNICIPAL- TEM                            20221117GCGASTO CORRIENTEOGA        
00710921022022112500000252NR0000000000000000000000000000000901D.G.R. ING.BRUTOS P/PAG. ELECTR.                            0000000000000000000000GC126862296530000005435089180EATTUR    000                                                            20221125GCGASTO CORRIENTEOGA        
00710921022022112400000251NR0000000000000000000000030717430111SERVICIOS COMPLEMENTARIOS S.A.S                             0000000000000000000000GC126206295027000004700000080EATTUR    000                                                            20221124GCGASTO CORRIENTEOGA        
00710921022022112800000253NR0000000000000000000000027170420832ARAOZ LUCIANA                                               0000000000000000000000GC127468297454000002912154880EATTUR    000                                                            20221128GCGASTO CORRIENTEOGA        
00710921022022110700000232TG0000000047780000000000000000000901D.G.R. ING.BRUTOS P/PAG. ELECTR.                            0000000000000000000000GC113443272385000000080800080EATTUR    101DGR INGRESOS BRUTOS                                         20221107GCGASTO CORRIENTEOGA        
00710921022022110700000232TG0000000047780000000000000000000901D.G.R. ING.BRUTOS P/PAG. ELECTR.                            0000000000000000000000GC113458272386000000213979780EATTUR    101DGR INGRESOS BRUTOS                                         20221107GCGASTO CORRIENTEOGA        
00710921022022110700000232TG0000000047780000000000000000000901D.G.R. ING.BRUTOS P/PAG. ELECTR.                            0000000000000000000000GC113647272387000000218889980EATTUR    101DGR INGRESOS BRUTOS                                         20221107GCGASTO CORRIENTEOGA        
00710921022022110700000232TG0000000047780000000000000000000901D.G.R. ING.BRUTOS P/PAG. ELECTR.                            0000000000000000000000GC113668272388000000251017080EATTUR    101DGR INGRESOS BRUTOS                                         20221107GCGASTO CORRIENTEOGA        
00710921022022110700000232TG0000000047780000000000000000000901D.G.R. ING.BRUTOS P/PAG. ELECTR.                            0000000000000000000000GC113674272389000000170486780EATTUR    101DGR INGRESOS BRUTOS                                         20221107GCGASTO CORRIENTEOGA        
00710921022022110700000232TG0000000047780000000000000000000901D.G.R. ING.BRUTOS P/PAG. ELECTR.                            0000000000000000000000GC113687272390000000173363680EATTUR    101DGR INGRESOS BRUTOS                                         20221107GCGASTO CORRIENTEOGA        
00710921022022110700000232TG0000000047780000000000000000000901D.G.R. ING.BRUTOS P/PAG. ELECTR.                            0000000000000000000000GC113694272391000000181871680EATTUR    101DGR INGRESOS BRUTOS                                         20221107GCGASTO CORRIENTEOGA        
00710921022022110700000232TG0000000047780000000000000000000901D.G.R. ING.BRUTOS P/PAG. ELECTR.                            0000000000000000000000GC113716272392000000213015380EATTUR    101DGR INGRESOS BRUTOS                                         20221107GCGASTO CORRIENTEOGA        
00710921022022110700000233TG0000000047790000000000000000000904S.G.P. SIST. PENS. JUB. RETENC. PERSONAL                    0000000000000000000000GC113443272397000000032320080EATTUR    409RES. GRAL 1784-SUSS-PROVEEDORES                             20221107GCGASTO CORRIENTEOGA        
00710921022022110700000233TG0000000047790000000000000000000904S.G.P. SIST. PENS. JUB. RETENC. PERSONAL                    0000000000000000000000GC113458272398000000061137080EATTUR    409RES. GRAL 1784-SUSS-PROVEEDORES                             20221107GCGASTO CORRIENTEOGA        
00710921022022110700000233TG0000000047790000000000000000000904S.G.P. SIST. PENS. JUB. RETENC. PERSONAL                    0000000000000000000000GC113647272399000000062539980EATTUR    409RES. GRAL 1784-SUSS-PROVEEDORES                             20221107GCGASTO CORRIENTEOGA        
00710921022022110700000233TG0000000047790000000000000000000904S.G.P. SIST. PENS. JUB. RETENC. PERSONAL                    0000000000000000000000GC113668272400000000071719180EATTUR    409RES. GRAL 1784-SUSS-PROVEEDORES                             20221107GCGASTO CORRIENTEOGA        
00710921022022110700000233TG0000000047790000000000000000000904S.G.P. SIST. PENS. JUB. RETENC. PERSONAL                    0000000000000000000000GC113674272401000000048710480EATTUR    409RES. GRAL 1784-SUSS-PROVEEDORES                             20221107GCGASTO CORRIENTEOGA        
00710921022022110700000233TG0000000047790000000000000000000904S.G.P. SIST. PENS. JUB. RETENC. PERSONAL                    0000000000000000000000GC113687272402000000049532480EATTUR    409RES. GRAL 1784-SUSS-PROVEEDORES                             20221107GCGASTO CORRIENTEOGA        
00710921022022110700000233TG0000000047790000000000000000000904S.G.P. SIST. PENS. JUB. RETENC. PERSONAL                    0000000000000000000000GC113694272403000000051963380EATTUR    409RES. GRAL 1784-SUSS-PROVEEDORES                             20221107GCGASTO CORRIENTEOGA        
00710921022022110700000233TG0000000047790000000000000000000904S.G.P. SIST. PENS. JUB. RETENC. PERSONAL                    0000000000000000000000GC113716272404000000060861580EATTUR    409RES. GRAL 1784-SUSS-PROVEEDORES                             20221107GCGASTO CORRIENTEOGA        
00710921022022110700000234NR0000000000000000000000000000009133TRIBUTO DE EMERGENCIA MUNICIPAL- TEM                        0000000000000000000000GC113443272435000000020200080EATTUR    133TRIBUTO ECONOMICO MUNICIPAL- TEM                            20221107GCGASTO CORRIENTEOGA        
00710921022022110700000235TG0000000047800000000000000000009903RET. IMP. GANANCIAS --PROVEEDORES Y CONTRATISTAS - AFIP     0000000000000000000000GC113443272528000000019840080EATTUR    402RET. IMP. GANANCIAS --PROVEEDORES Y CONTRATISTAS - AFIP     20221107GCGASTO CORRIENTEOGA        
00710921022022110700000235TG0000000047800000000000000000009903RET. IMP. GANANCIAS --PROVEEDORES Y CONTRATISTAS - AFIP     0000000000000000000000GC113458272529000000108840180EATTUR    402RET. IMP. GANANCIAS --PROVEEDORES Y CONTRATISTAS - AFIP     20221107GCGASTO CORRIENTEOGA        
00710921022022110700000235TG0000000047800000000000000000009903RET. IMP. GANANCIAS --PROVEEDORES Y CONTRATISTAS - AFIP     0000000000000000000000GC113647272530000000111645980EATTUR    402RET. IMP. GANANCIAS --PROVEEDORES Y CONTRATISTAS - AFIP     20221107GCGASTO CORRIENTEOGA        
00710921022022110700000235TG0000000047800000000000000000009903RET. IMP. GANANCIAS --PROVEEDORES Y CONTRATISTAS - AFIP     0000000000000000000000GC113668272531000000130004380EATTUR    402RET. IMP. GANANCIAS --PROVEEDORES Y CONTRATISTAS - AFIP     20221107GCGASTO CORRIENTEOGA        
00710921022022110700000235TG0000000047800000000000000000009903RET. IMP. GANANCIAS --PROVEEDORES Y CONTRATISTAS - AFIP     0000000000000000000000GC113674272532000000083986980EATTUR    402RET. IMP. GANANCIAS --PROVEEDORES Y CONTRATISTAS - AFIP     20221107GCGASTO CORRIENTEOGA        
00710921022022110700000235TG0000000047800000000000000000009903RET. IMP. GANANCIAS --PROVEEDORES Y CONTRATISTAS - AFIP     0000000000000000000000GC113687272533000000085630980EATTUR    402RET. IMP. GANANCIAS --PROVEEDORES Y CONTRATISTAS - AFIP     20221107GCGASTO CORRIENTEOGA        
00710921022022110700000235TG0000000047800000000000000000009903RET. IMP. GANANCIAS --PROVEEDORES Y CONTRATISTAS - AFIP     0000000000000000000000GC113694272534000000090492680EATTUR    402RET. IMP. GANANCIAS --PROVEEDORES Y CONTRATISTAS - AFIP     20221107GCGASTO CORRIENTEOGA        
00710921022022110700000235TG0000000047800000000000000000009903RET. IMP. GANANCIAS --PROVEEDORES Y CONTRATISTAS - AFIP     0000000000000000000000GC113716272535000000108289080EATTUR    402RET. IMP. GANANCIAS --PROVEEDORES Y CONTRATISTAS - AFIP     20221107GCGASTO CORRIENTEOGA        
00710921022022111600000239NR0000000000000000000000027257347082SORIA CHIARELLO SILVIA GABRIELA                             0000000000000000000000FF001710284091000004518473080EATTUR    000                                                            20221116FFFONDO FIJO                
00710921022022112900000254NR0000000000000000000000030675428081SUPERIOR GOBIERNO DE LA PROVINCIA                           0000000000000000000000GC128286298883000002209700080EATTUR    000                                                            20221129GCGASTO CORRIENTEOGA        
00710921022022120600000255TG0000000052830000000000000000000901D.G.R. ING.BRUTOS P/PAG. ELECTR.                            0000000000000000000000GC123858307885000000227632580EATTUR    101DGR INGRESOS BRUTOS                                         20221206GCGASTO CORRIENTEOGA        
00710921022022120600000255TG0000000052830000000000000000000901D.G.R. ING.BRUTOS P/PAG. ELECTR.                            0000000000000000000000GC123907307886000000208332280EATTUR    101DGR INGRESOS BRUTOS                                         20221206GCGASTO CORRIENTEOGA        
00710921022022120600000255TG0000000052830000000000000000000901D.G.R. ING.BRUTOS P/PAG. ELECTR.                            0000000000000000000000GC123929307887000000258341380EATTUR    101DGR INGRESOS BRUTOS                                         20221206GCGASTO CORRIENTEOGA        
00710921022022120600000255TG0000000052830000000000000000000901D.G.R. ING.BRUTOS P/PAG. ELECTR.                            0000000000000000000000GC124963307888000000125416080EATTUR    101DGR INGRESOS BRUTOS                                         20221206GCGASTO CORRIENTEOGA        
00710921022022120600000255TG0000000052830000000000000000000901D.G.R. ING.BRUTOS P/PAG. ELECTR.                            0000000000000000000000GC125006307889000000177053180EATTUR    101DGR INGRESOS BRUTOS                                         20221206GCGASTO CORRIENTEOGA        
00710921022022120600000255TG0000000052830000000000000000000901D.G.R. ING.BRUTOS P/PAG. ELECTR.                            0000000000000000000000GC125039307890000000231579480EATTUR    101DGR INGRESOS BRUTOS                                         20221206GCGASTO CORRIENTEOGA        
00710921022022120600000255TG0000000052830000000000000000000901D.G.R. ING.BRUTOS P/PAG. ELECTR.                            0000000000000000000000GC125045307891000000086750080EATTUR    101DGR INGRESOS BRUTOS                                         20221206GCGASTO CORRIENTEOGA        
00710921022022120600000255TG0000000052830000000000000000000901D.G.R. ING.BRUTOS P/PAG. ELECTR.                            0000000000000000000000GC127468307892000000108508280EATTUR    101DGR INGRESOS BRUTOS                                         20221206GCGASTO CORRIENTEOGA        
00710921022022120600000256TG0000000052840000000000000000009903RET. IMP. GANANCIAS --PROVEEDORES Y CONTRATISTAS - AFIP     0000000000000000000000GC123858307896000000116641780EATTUR    402RET. IMP. GANANCIAS --PROVEEDORES Y CONTRATISTAS - AFIP     20221206GCGASTO CORRIENTEOGA        
00710921022022120600000256TG0000000052840000000000000000009903RET. IMP. GANANCIAS --PROVEEDORES Y CONTRATISTAS - AFIP     0000000000000000000000GC123907307897000000105613080EATTUR    402RET. IMP. GANANCIAS --PROVEEDORES Y CONTRATISTAS - AFIP     20221206GCGASTO CORRIENTEOGA        
00710921022022120600000256TG0000000052840000000000000000009903RET. IMP. GANANCIAS --PROVEEDORES Y CONTRATISTAS - AFIP     0000000000000000000000GC123929307898000000134189680EATTUR    402RET. IMP. GANANCIAS --PROVEEDORES Y CONTRATISTAS - AFIP     20221206GCGASTO CORRIENTEOGA        
00710921022022120600000256TG0000000052840000000000000000009903RET. IMP. GANANCIAS --PROVEEDORES Y CONTRATISTAS - AFIP     0000000000000000000000GC124963307899000000058232380EATTUR    402RET. IMP. GANANCIAS --PROVEEDORES Y CONTRATISTAS - AFIP     20221206GCGASTO CORRIENTEOGA        
00710921022022120600000256TG0000000052840000000000000000009903RET. IMP. GANANCIAS --PROVEEDORES Y CONTRATISTAS - AFIP     0000000000000000000000GC125006307900000000087739280EATTUR    402RET. IMP. GANANCIAS --PROVEEDORES Y CONTRATISTAS - AFIP     20221206GCGASTO CORRIENTEOGA        
00710921022022120600000256TG0000000052840000000000000000009903RET. IMP. GANANCIAS --PROVEEDORES Y CONTRATISTAS - AFIP     0000000000000000000000GC125039307901000000118897180EATTUR    402RET. IMP. GANANCIAS --PROVEEDORES Y CONTRATISTAS - AFIP     20221206GCGASTO CORRIENTEOGA        
00710921022022120600000256TG0000000052840000000000000000009903RET. IMP. GANANCIAS --PROVEEDORES Y CONTRATISTAS - AFIP     0000000000000000000000GC125045307902000000125366080EATTUR    402RET. IMP. GANANCIAS --PROVEEDORES Y CONTRATISTAS - AFIP     20221206GCGASTO CORRIENTEOGA        
00710921022022120600000256TG0000000052840000000000000000009903RET. IMP. GANANCIAS --PROVEEDORES Y CONTRATISTAS - AFIP     0000000000000000000000GC127468307903000000048570780EATTUR    402RET. IMP. GANANCIAS --PROVEEDORES Y CONTRATISTAS - AFIP     20221206GCGASTO CORRIENTEOGA        
00710921022022120600000257TG0000000052850000000000000000000904S.G.P. SIST. PENS. JUB. RETENC. PERSONAL                    0000000000000000000000GC123858307911000000065037880EATTUR    409RES. GRAL 1784-SUSS-PROVEEDORES                             20221206GCGASTO CORRIENTEOGA        
00710921022022120600000257TG0000000052850000000000000000000904S.G.P. SIST. PENS. JUB. RETENC. PERSONAL                    0000000000000000000000GC123907307912000000059523580EATTUR    409RES. GRAL 1784-SUSS-PROVEEDORES                             20221206GCGASTO CORRIENTEOGA        
00710921022022120600000257TG0000000052850000000000000000000904S.G.P. SIST. PENS. JUB. RETENC. PERSONAL                    0000000000000000000000GC123929307913000000073811880EATTUR    409RES. GRAL 1784-SUSS-PROVEEDORES                             20221206GCGASTO CORRIENTEOGA        
00710921022022120600000257TG0000000052850000000000000000000904S.G.P. SIST. PENS. JUB. RETENC. PERSONAL                    0000000000000000000000GC124963307914000000035833180EATTUR    409RES. GRAL 1784-SUSS-PROVEEDORES                             20221206GCGASTO CORRIENTEOGA        
00710921022022120600000257TG0000000052850000000000000000000904S.G.P. SIST. PENS. JUB. RETENC. PERSONAL                    0000000000000000000000GC125006307915000000050586680EATTUR    409RES. GRAL 1784-SUSS-PROVEEDORES                             20221206GCGASTO CORRIENTEOGA        
00710921022022120600000257TG0000000052850000000000000000000904S.G.P. SIST. PENS. JUB. RETENC. PERSONAL                    0000000000000000000000GC125039307916000000066165580EATTUR    409RES. GRAL 1784-SUSS-PROVEEDORES                             20221206GCGASTO CORRIENTEOGA        
00710921022022120600000257TG0000000052850000000000000000000904S.G.P. SIST. PENS. JUB. RETENC. PERSONAL                    0000000000000000000000GC127468307917000000031002380EATTUR    409RES. GRAL 1784-SUSS-PROVEEDORES                             20221206GCGASTO CORRIENTEOGA        
00719750502022112200000550NR0000000000000000000000030709204617ENTE AUTARQUICO TUCUMAN TURISMO                             0000000000000000000000GC122032291336000056310000080EATTUR    000                                                            20221122GCGASTO CORRIENTEREM        
00719750502022112200000551NR0000000000000000000000030709204617ENTE AUTARQUICO TUCUMAN TURISMO                             0000000000000000000000GC122032291340000000440000080EATTUR    000                                                            20221122GCGASTO CORRIENTEREM        
00719750502022112200000552NR0000000000000000000000030709204617ENTE AUTARQUICO TUCUMAN TURISMO                             0000000000000000000000GC122044291341000000250000080EATTUR    000                                                            20221122GCGASTO CORRIENTEREM        
00719750502022112213606313NR0000000000000000000000030709204617ENTE AUTARQUICO TUCUMAN TURISMO                             0000000000000000000000GC122032291343000000250000080EATTUR    000                                                            20221122GCGASTO CORRIENTEREM        
00719750502022111700000521NR0000000000003067542808100000009509SUPERIOR GOBIERNO DE LA PROVINCIA                           0000000000000000000000GC115403287071000000003580080EATTUR    509SUBSIDIO FAMILIAR I.P.S.S.                                  20221117GCGASTO CORRIENTEREM        
00719750502022111700000522NR0000000000000000000000000000009715SEGURO COLECTIVO  OBLIGATORIO CAJA POPULAR AHORROS          0000000000000000000000GC115403287179000000001584080EATTUR    715SEGURO COLECTIVO  OBLIGATORIO CAJA POPULAR AHORROS          20221117GCGASTO CORRIENTEREM        
00719750502022111700000523NR0000000000003067542808100000009716SUPERIOR GOBIERNO DE LA PROVINCIA                           0000000000000000000000GC115403287184000000003465080EATTUR    716SEGURO C ADICIONAL CAJA POPULAR DE AHORROS                  20221117GCGASTO CORRIENTEREM        
00719750502022111700000524NR0000000000003067542808100000009503SUPERIOR GOBIERNO DE LA PROVINCIA                           0000000000000000000000GC115403287189000000044833680EATTUR    503OBRA SOCIAL - I.P.S.S.                                      20221117GCGASTO CORRIENTEREM        
00719750502022111700000525NR0000000000003067542808100000009503SUPERIOR GOBIERNO DE LA PROVINCIA                           0000000000000000000000GC115403287201000000014300080EATTUR    503OBRA SOCIAL - I.P.S.S.                                      20221117GCGASTO CORRIENTEREM        
00719750502022111700000526NR0000000000003067542808100000009501SUPERIOR GOBIERNO DE LA PROVINCIA                           0000000000000000000000GC115403287208000000097986180EATTUR    501APORTE JUBILATORIO PERSONAL - AFIP                          20221117GCGASTO CORRIENTEREM        
00719750502022111700000527NR0000000000003067542808130517999551SUPERIOR GOBIERNO DE LA PROVINCIA                           0000000000000000000000GC115403287210000000013189480EATTUR    000                                                            20221117GCGASTO CORRIENTEREM        
00719750502022111700000528NR0000000000003067542808100000009508SUPERIOR GOBIERNO DE LA PROVINCIA                           0000000000000000000000GC115416287292000000006400080EATTUR    508SUBSIDIO DE SEPELIO  I.S.S.P.                               20221117GCGASTO CORRIENTEREM        
00719750502022111700000529NR0000000000003067542808100000009509SUPERIOR GOBIERNO DE LA PROVINCIA                           0000000000000000000000GC115416287296000000001790080EATTUR    509SUBSIDIO FAMILIAR I.P.S.S.                                  20221117GCGASTO CORRIENTEREM        
00719750502022111700000530NR0000000000003067542808100000009715SUPERIOR GOBIERNO DE LA PROVINCIA                           0000000000000000000000GC115416287322000000001584080EATTUR    715SEGURO COLECTIVO  OBLIGATORIO CAJA POPULAR AHORROS          20221117GCGASTO CORRIENTEREM        
00719750502022111700000531NR0000000000003067542808100000009702SUPERIOR GOBIERNO DE LA PROVINCIA                           0000000000000000000000GC115416287333000000010000080EATTUR    702DESCUENTO POR INASISTENCIAS SUPERIOR GOBIERNO               20221117GCGASTO CORRIENTEREM        
00719750502022111700000532NR0000000000003067542808100000009503SUPERIOR GOBIERNO DE LA PROVINCIA                           0000000000000000000000GC115416287336000000039559680EATTUR    503OBRA SOCIAL - I.P.S.S.                                      20221117GCGASTO CORRIENTEREM        
00719750502022111700000533NR0000000000003067542808100000009503SUPERIOR GOBIERNO DE LA PROVINCIA                           0000000000000000000000GC115416287399000000014300080EATTUR    503OBRA SOCIAL - I.P.S.S.                                      20221117GCGASTO CORRIENTEREM        
00719750502022111700000534NR0000000000003067542808100000009501SUPERIOR GOBIERNO DE LA PROVINCIA                           0000000000000000000000GC115416287438000000086459580EATTUR    501APORTE JUBILATORIO PERSONAL - AFIP                          20221117GCGASTO CORRIENTEREM        
00719750502022111700000535NR0000000000003067542808130517999551SUPERIOR GOBIERNO DE LA PROVINCIA                           0000000000000000000000GC115416287457000000011858980EATTUR    000                                                            20221117GCGASTO CORRIENTEREM        
00719750502022111700000536NR0000000000003067542808100000009508SUPERIOR GOBIERNO DE LA PROVINCIA                           0000000000000000000000GC115416287468000000006400080EATTUR    508SUBSIDIO DE SEPELIO  I.S.S.P.                               20221117GCGASTO CORRIENTEREM        
00719750502022111700000537NR0000000000003067542808100000009509SUPERIOR GOBIERNO DE LA PROVINCIA                           0000000000000000000000GC115416287470000000001790080EATTUR    509SUBSIDIO FAMILIAR I.P.S.S.                                  20221117GCGASTO CORRIENTEREM        
00719750502022111700000538NR0000000000003067542808100000009715SUPERIOR GOBIERNO DE LA PROVINCIA                           0000000000000000000000GC115416287478000000001584080EATTUR    715SEGURO COLECTIVO  OBLIGATORIO CAJA POPULAR AHORROS          20221117GCGASTO CORRIENTEREM        
00719750502022111700000539NR0000000000003067542808100000009503SUPERIOR GOBIERNO DE LA PROVINCIA                           0000000000000000000000GC115416287486000000049207680EATTUR    503OBRA SOCIAL - I.P.S.S.                                      20221117GCGASTO CORRIENTEREM        
00719750502022111700000540NR0000000000003067542808100000009503SUPERIOR GOBIERNO DE LA PROVINCIA                           0000000000000000000000GC115416287501000000014300080EATTUR    503OBRA SOCIAL - I.P.S.S.                                      20221117GCGASTO CORRIENTEREM        
00719750502022111700000541NR0000000000003067542808100000009501SUPERIOR GOBIERNO DE LA PROVINCIA                           0000000000000000000000GC115416287514000000107545780EATTUR    501APORTE JUBILATORIO PERSONAL - AFIP                          20221117GCGASTO CORRIENTEREM        
00719750502022111700000542NR0000000000003067542808130517999551SUPERIOR GOBIERNO DE LA PROVINCIA                           0000000000000000000000GC115416287541000000014324980EATTUR    000                                                            20221117GCGASTO CORRIENTEREM        
00719750502022111700000543NR0000000000000000000000030709204617ENTE AUTARQUICO TUCUMAN TURISMO                             0000000000000000000000GC115403287616000002785385380EATTUR    000                                                            20221117GCGASTO CORRIENTEREM        
00719750502022111700000544NR0000000000003067542808130709204617SUPERIOR GOBIERNO DE LA PROVINCIA                           0000000000000000000000GC115403287644000000395072780EATTUR    000                                                            20221117GCGASTO CORRIENTEREM        
00719750502022111713606311NR0000000000000000000000030709204617ENTE AUTARQUICO TUCUMAN TURISMO                             0000000000000000000000GC115403287664000000890418980EATTUR    000                                                            20221117GCGASTO CORRIENTEREM        
00719750502022111700000545NR0000000000000000000000030709204617ENTE AUTARQUICO TUCUMAN TURISMO                             0000000000000000000000GC115403287693000255508199580EATTUR    000                                                            20221117GCGASTO CORRIENTEREM        
00719750502022111700000546NR0000000000000000000000030709204617ENTE AUTARQUICO TUCUMAN TURISMO                             0000000000000000000000GC115411287717000001180430480EATTUR    000                                                            20221117GCGASTO CORRIENTEREM        
00719750502022111700000547NR0000000000003067542808130709204617SUPERIOR GOBIERNO DE LA PROVINCIA                           0000000000000000000000GC115416287719000000347345780EATTUR    000                                                            20221117GCGASTO CORRIENTEREM        
00719750502022111700000548NR0000000000003067542808130709204617SUPERIOR GOBIERNO DE LA PROVINCIA                           0000000000000000000000GC115416287733000000437929780EATTUR    000                                                            20221117GCGASTO CORRIENTEREM        
00719750502022111700000549NR0000000000000000000000030709204617ENTE AUTARQUICO TUCUMAN TURISMO                             0000000000000000000000GC115416287753000009768034480EATTUR    000                                                            20221117GCGASTO CORRIENTEREM        
00719750502022111700000502TG0000000049850000000000000000009508SUBSIDIO DE SEPELIO  I.S.S.P.                               0000000000000000000000GC115403286380000001626880080EATTUR    508SUBSIDIO DE SEPELIO  I.S.S.P.                               20221117GCGASTO CORRIENTEREM        
00719750502022111700000502TG0000000049850000000000000000009508SUBSIDIO DE SEPELIO  I.S.S.P.                               0000000000000000000000GC115411286381000000006400080EATTUR    508SUBSIDIO DE SEPELIO  I.S.S.P.                               20221117GCGASTO CORRIENTEREM        
00719750502022111700000502TG0000000049850000000000000000009508SUBSIDIO DE SEPELIO  I.S.S.P.                               0000000000000000000000GC115416286382000000160000080EATTUR    508SUBSIDIO DE SEPELIO  I.S.S.P.                               20221117GCGASTO CORRIENTEREM        
00719750502022111700000503TG0000000049860000000000000000009509SUBSIDIO FAMILIAR I.P.S.S.                                  0000000000000000000000GC115403286387000000415280080EATTUR    509SUBSIDIO FAMILIAR I.P.S.S.                                  20221117GCGASTO CORRIENTEREM        
00719750502022111700000503TG0000000049860000000000000000009509SUBSIDIO FAMILIAR I.P.S.S.                                  0000000000000000000000GC115411286388000000001790080EATTUR    509SUBSIDIO FAMILIAR I.P.S.S.                                  20221117GCGASTO CORRIENTEREM        
00719750502022111700000503TG0000000049860000000000000000009509SUBSIDIO FAMILIAR I.P.S.S.                                  0000000000000000000000GC115416286389000000044750080EATTUR    509SUBSIDIO FAMILIAR I.P.S.S.                                  20221117GCGASTO CORRIENTEREM        
00719750502022111700000504TG0000000049870000000000000000009509SUBSIDIO FAMILIAR I.P.S.S.                                  0000000000000000000000GC115403286398000000137830080EATTUR    509SUBSIDIO FAMILIAR I.P.S.S.                                  20221117GCGASTO CORRIENTEREM        
00719750502022111700000504TG0000000049870000000000000000009509SUBSIDIO FAMILIAR I.P.S.S.                                  0000000000000000000000GC115411286399000000001790080EATTUR    509SUBSIDIO FAMILIAR I.P.S.S.                                  20221117GCGASTO CORRIENTEREM        
00719750502022111700000504TG0000000049870000000000000000009509SUBSIDIO FAMILIAR I.P.S.S.                                  0000000000000000000000GC115416286400000000023270080EATTUR    509SUBSIDIO FAMILIAR I.P.S.S.                                  20221117GCGASTO CORRIENTEREM        
00719750502022111700000505TG0000000049883051799955100000009715CAJA POPULAR DE AHORROS DE LA PROVINCIA DE TUCUMAN          0000000000000000000000GC115403286401000000369072080EATTUR    715SEGURO COLECTIVO  OBLIGATORIO CAJA POPULAR AHORROS          20221117GCGASTO CORRIENTEREM        
00719750502022111700000505TG0000000049883051799955100000009716CAJA POPULAR DE AHORROS DE LA PROVINCIA DE TUCUMAN          0000000000000000000000GC115403286402000000097479080EATTUR    716SEGURO C ADICIONAL CAJA POPULAR DE AHORROS                  20221117GCGASTO CORRIENTEREM        
00719750502022111700000505TG0000000049883051799955100000009715CAJA POPULAR DE AHORROS DE LA PROVINCIA DE TUCUMAN          0000000000000000000000GC115411286403000000001584080EATTUR    715SEGURO COLECTIVO  OBLIGATORIO CAJA POPULAR AHORROS          20221117GCGASTO CORRIENTEREM        
00719750502022111700000505TG0000000049883051799955100000009715CAJA POPULAR DE AHORROS DE LA PROVINCIA DE TUCUMAN          0000000000000000000000GC115416286404000000039600080EATTUR    715SEGURO COLECTIVO  OBLIGATORIO CAJA POPULAR AHORROS          20221117GCGASTO CORRIENTEREM        
00719750502022111700000506NR0000000000000000000000000000009647S.U.T.E.P.                                                  0000000000000000000000GC115403286407000000016000080EATTUR    647S.U.T.E.P.                                                  20221117GCGASTO CORRIENTEREM        
00719750502022111700000507NR0000000000000000000000000000009118CISI - MUNICIPALIDAD DE SAN MIGUEL DE TUCUMAN               0000000000000000000000GC115403286417000000003049080EATTUR    118CISI - MUNICIPALIDAD DE SAN MIGUEL DE TUCUMAN               20221117GCGASTO CORRIENTEREM        
00719750502022111700000508NR0000000000000000000000000000009655UNION PERSONAL CIVIL DE LA NACION - UPCN                    0000000000000000000000GC115403286441000000652407980EATTUR    655UNION PERSONAL CIVIL DE LA NACION - UPCN                    20221117GCGASTO CORRIENTEREM        
00719750502022111700000509NR0000000000000000000000000000009607ASOCIACION DE TRABAJADORES DEL ESTADO                       0000000000000000000000GC115403286457000000275279280EATTUR    607ASOCIACION DE TRABAJADORES DEL ESTADO                       20221117GCGASTO CORRIENTEREM        
00719750502022111700000510NR0000000000000000000000000000009616CAJA POPULAR AHORRO PRESTAMOS                               0000000000000000000000GC115403286469000000766008480EATTUR    616CAJA POPULAR AHORRO PRESTAMOS                               20221117GCGASTO CORRIENTEREM        
00719750502022111700000511NR0000000000000000000000000000009646PARTIDO JUSTICIALISTA                                       0000000000000000000000GC115403286474000000246494980EATTUR    646PARTIDO JUSTICIALISTA                                       20221117GCGASTO CORRIENTEREM        
00719750502022111700000512NR0000000000000000000000000000009612ASOCIACION MUTUAL DE LA POLICIA DE TUCUMAN                  0000000000000000000000GC115403286586000000763871880EATTUR    612ASOCIACION MUTUAL DE LA POLICIA DE TUCUMAN                  20221117GCGASTO CORRIENTEREM        
00719750502022111700000513NR0000000000000000000000000000009645MUTUAL PROVINCIAL TUCUMAN                                   0000000000000000000000GC115403286599000000318000080EATTUR    645MUTUAL PROVINCIAL TUCUMAN                                   20221117GCGASTO CORRIENTEREM        
00719750502022111700000514NR0000000000000000000000000000009702DESCUENTO POR INASISTENCIAS SUPERIOR GOBIERNO               0000000000000000000000GC115403286619000000309040680EATTUR    702DESCUENTO POR INASISTENCIAS SUPERIOR GOBIERNO               20221117GCGASTO CORRIENTEREM        
00719750502022111700000515NR0000000000000000000000000000000903S.G.P. FONDO TERCERO AG. RET. IMP. A LAS GANANCIAS          0000000000000000000000GC115403286699000002619520980EATTUR    401IMPUESTO A LAS GANANCIAS - AFIP-P/ SUELDOS                  20221117GCGASTO CORRIENTEREM        
00719750502022111700000516TG0000000049893063394922730633949227INSTITUTO DE PREVISION Y SEGURIDAD SOCIAL DE LA PCIA.       0000000000000000000000GC115403286736000005709805780EATTUR    000                                                            20221117GCGASTO CORRIENTEREM        
00719750502022111700000516TG0000000049893063394922700000009503INSTITUTO DE PREVISION Y SEGURIDAD SOCIAL DE LA PCIA.       0000000000000000000000GC115403286737000006377093680EATTUR    503OBRA SOCIAL - I.P.S.S.                                      20221117GCGASTO CORRIENTEREM        
00719750502022111700000516TG0000000049893063394922700000009503INSTITUTO DE PREVISION Y SEGURIDAD SOCIAL DE LA PCIA.       0000000000000000000000GC115411286738000000024422980EATTUR    503OBRA SOCIAL - I.P.S.S.                                      20221117GCGASTO CORRIENTEREM        
00719750502022111700000516TG0000000049893063394922730633949227INSTITUTO DE PREVISION Y SEGURIDAD SOCIAL DE LA PCIA.       0000000000000000000000GC115411286739000000024422980EATTUR    000                                                            20221117GCGASTO CORRIENTEREM        
00719750502022111700000516TG0000000049893063394922700000009503INSTITUTO DE PREVISION Y SEGURIDAD SOCIAL DE LA PCIA.       0000000000000000000000GC115416286740000000504689180EATTUR    503OBRA SOCIAL - I.P.S.S.                                      20221117GCGASTO CORRIENTEREM        
00719750502022111700000516TG0000000049893063394922730633949227INSTITUTO DE PREVISION Y SEGURIDAD SOCIAL DE LA PCIA.       0000000000000000000000GC115416286741000000593456380EATTUR    000                                                            20221117GCGASTO CORRIENTEREM        
00719750502022111700000517TG0000000049900000000000000000009503OBRA SOCIAL - I.P.S.S.                                      0000000000000000000000GC115403286759000003675100080EATTUR    503OBRA SOCIAL - I.P.S.S.                                      20221117GCGASTO CORRIENTEREM        
00719750502022111700000517TG0000000049900000000000000000009503OBRA SOCIAL - I.P.S.S.                                      0000000000000000000000GC115411286760000000014300080EATTUR    503OBRA SOCIAL - I.P.S.S.                                      20221117GCGASTO CORRIENTEREM        
00719750502022111700000517TG0000000049900000000000000000009503OBRA SOCIAL - I.P.S.S.                                      0000000000000000000000GC115416286761000000357500080EATTUR    503OBRA SOCIAL - I.P.S.S.                                      20221117GCGASTO CORRIENTEREM        
00719750502022111700000518TG0000000049913067542808133693450239SUPERIOR GOBIERNO DE LA PROVINCIA                           0000000000000000000000GC115403286846000013089000180EATTUR    000                                                            20221117GCGASTO CORRIENTEREM        
00719750502022111700000518TG0000000049913067542808100000009501SUPERIOR GOBIERNO DE LA PROVINCIA                           0000000000000000000000GC115403286847000014059241780EATTUR    501APORTE JUBILATORIO PERSONAL - AFIP                          20221117GCGASTO CORRIENTEREM        
00719750502022111700000518TG0000000049913067542808100000009501SUPERIOR GOBIERNO DE LA PROVINCIA                           0000000000000000000000GC115411286848000000060029280EATTUR    501APORTE JUBILATORIO PERSONAL - AFIP                          20221117GCGASTO CORRIENTEREM        
00719750502022111700000518TG0000000049913067542808133693450239SUPERIOR GOBIERNO DE LA PROVINCIA                           0000000000000000000000GC115411286849000000055499780EATTUR    000                                                            20221117GCGASTO CORRIENTEREM        
00719750502022111700000518TG0000000049913067542808100000009501SUPERIOR GOBIERNO DE LA PROVINCIA                           0000000000000000000000GC115416286850000001256664580EATTUR    501APORTE JUBILATORIO PERSONAL - AFIP                          20221117GCGASTO CORRIENTEREM        
00719750502022111700000518TG0000000049913067542808133693450239SUPERIOR GOBIERNO DE LA PROVINCIA                           0000000000000000000000GC115416286851000001341209980EATTUR    000                                                            20221117GCGASTO CORRIENTEREM        
00719750502022111700000519TG0000000049920000000000030517999551CAJA POPULAR DE AHORROS DE LA PROVINCIA DE TUCUMAN          0000000000000000000000GC115403286858000006207191880EATTUR    000                                                            20221117GCGASTO CORRIENTEREM        
00719750502022111700000519TG0000000049920000000000030517999551CAJA POPULAR DE AHORROS DE LA PROVINCIA DE TUCUMAN          0000000000000000000000GC115411286859000000028829580EATTUR    000                                                            20221117GCGASTO CORRIENTEREM        
00719750502022111700000519TG0000000049920000000000030517999551CAJA POPULAR DE AHORROS DE LA PROVINCIA DE TUCUMAN          0000000000000000000000GC115416286860000000323844280EATTUR    000                                                            20221117GCGASTO CORRIENTEREM        
00719750502022111700000520NR0000000000003067542808100000009508SUPERIOR GOBIERNO DE LA PROVINCIA                           0000000000000000000000GC115403286955000000006400080EATTUR    508SUBSIDIO DE SEPELIO  I.S.S.P.                               20221117GCGASTO CORRIENTEREM        
00719750502022110300000495NR0000000000000000000000030709204617ENTE AUTARQUICO TUCUMAN TURISMO                             0000000000000000000000GC113707269999000017089508980EATTUR    000                                                            20221103GCGASTO CORRIENTEREM        
00719750502022110300000496NR0000000000000000000000030709204617ENTE AUTARQUICO TUCUMAN TURISMO                             0000000000000000000000GC113711270000000000108198680EATTUR    000                                                            20221103GCGASTO CORRIENTEREM        
00719750502022110300000497NR0000000000000000000000030709204617ENTE AUTARQUICO TUCUMAN TURISMO                             0000000000000000000000GC113713270001000002418478780EATTUR    000                                                            20221103GCGASTO CORRIENTEREM        
00719750502022110300000498NR0000000000000000000000030709204617ENTE AUTARQUICO TUCUMAN TURISMO                             0000000000000000000000GC113707270002000000104496780EATTUR    000                                                            20221103GCGASTO CORRIENTEREM        
00719750502022110300000499NR0000000000000000000000030709204617ENTE AUTARQUICO TUCUMAN TURISMO                             0000000000000000000000GC113707270004000000098738380EATTUR    000                                                            20221103GCGASTO CORRIENTEREM        
00719750502022110300000500NR0000000000000000000000030709204617ENTE AUTARQUICO TUCUMAN TURISMO                             0000000000000000000000GC113713270005000000089105380EATTUR    000                                                            20221103GCGASTO CORRIENTEREM        
00719750502022110300000501NR0000000000000000000000030709204617ENTE AUTARQUICO TUCUMAN TURISMO                             0000000000000000000000GC113713270016000000108371380EATTUR    000                                                            20221103GCGASTO CORRIENTEREM        
00719750502022110313606310NR0000000000000000000000030709204617ENTE AUTARQUICO TUCUMAN TURISMO                             0000000000000000000000GC113707270020000000037241580EATTUR    000                                                            20221103GCGASTO CORRIENTEREM        
00719750502022112900000553NR0000000000000000000000030709204617ENTE AUTARQUICO TUCUMAN TURISMO                             0000000000000000000000GC127092298520000000681159980EATTUR    000                                                            20221129GCGASTO CORRIENTEREM        
00719750502022112900000554NR0000000000000000000000030709204617ENTE AUTARQUICO TUCUMAN TURISMO                             0000000000000000000000GC127092298530000000227053380EATTUR    000                                                            20221129GCGASTO CORRIENTEREM        
00719750502022112900000555TG0000000051453063394922730633949227INSTITUTO DE PREVISION Y SEGURIDAD SOCIAL DE LA PCIA.       0000000000000000000000GC127092298551000000048366480EATTUR    000                                                            20221129GCGASTO CORRIENTEREM        
00719750502022112900000555TG0000000051453063394922700000009503INSTITUTO DE PREVISION Y SEGURIDAD SOCIAL DE LA PCIA.       0000000000000000000000GC127092298552000000048366480EATTUR    503OBRA SOCIAL - I.P.S.S.                                      20221129GCGASTO CORRIENTEREM        
00719750502022112900000556TG0000000051463067542808133693450239SUPERIOR GOBIERNO DE LA PROVINCIA                           0000000000000000000000GC127092298565000000093185980EATTUR    000                                                            20221129GCGASTO CORRIENTEREM        
00719750502022112900000556TG0000000051463067542808100000009501SUPERIOR GOBIERNO DE LA PROVINCIA                           0000000000000000000000GC127092298566000000118228980EATTUR    501APORTE JUBILATORIO PERSONAL - AFIP                          20221129GCGASTO CORRIENTEREM        
00719750502022112900000557NR0000000000000000000000030517999551CAJA POPULAR DE AHORROS DE LA PROVINCIA DE TUCUMAN          0000000000000000000000GC127092298578000000020958880EATTUR    000                                                            20221129GCGASTO CORRIENTEREM        
00719750502022120200000558NR0000000000000000000000030709204617ENTE AUTARQUICO TUCUMAN TURISMO                             0000000000000000000000GC127916305679000016982974480EATTUR    000                                                            20221202GCGASTO CORRIENTEREM        
00719750502022120200000559NR0000000000000000000000030709204617ENTE AUTARQUICO TUCUMAN TURISMO                             0000000000000000000000GC127919305680000000245575980EATTUR    000                                                            20221202GCGASTO CORRIENTEREM        
00719750502022120200000560NR0000000000000000000000030709204617ENTE AUTARQUICO TUCUMAN TURISMO                             0000000000000000000000GC127922305682000003081532380EATTUR    000                                                            20221202GCGASTO CORRIENTEREM        
00719750502022120200000561NR0000000000000000000000030709204617ENTE AUTARQUICO TUCUMAN TURISMO                             0000000000000000000000GC127916305684000000104496780EATTUR    000                                                            20221202GCGASTO CORRIENTEREM        
00719750502022120200000562NR0000000000003067542808130709204617SUPERIOR GOBIERNO DE LA PROVINCIA                           0000000000000000000000GC127916305685000000098738380EATTUR    000                                                            20221202GCGASTO CORRIENTEREM        
00719750502022120213606314NR0000000000000000000000030709204617ENTE AUTARQUICO TUCUMAN TURISMO                             0000000000000000000000GC127916305687000000037241580EATTUR    000                                                            20221202GCGASTO CORRIENTEREM        
00719750502022120213606315NR0000000000000000000000030709204617ENTE AUTARQUICO TUCUMAN TURISMO                             0000000000000000000000GC127916305689000000101146580EATTUR    000                                                            20221202GCGASTO CORRIENTEREM        
00719788752022110700000043TG0000000047810000000000000000000901D.G.R. ING.BRUTOS P/PAG. ELECTR.                            0000000000000000000000GC109484272546000000005840080EATTUR    101DGR INGRESOS BRUTOS                                         20221107GCGASTO CORRIENTEOGA        
00719788752022110700000043TG0000000047810000000000000000000901D.G.R. ING.BRUTOS P/PAG. ELECTR.                            0000000000000000000000GC109501272547000000063300080EATTUR    101DGR INGRESOS BRUTOS                                         20221107GCGASTO CORRIENTEOGA        
00719788752022110700000043TG0000000047810000000000000000000901D.G.R. ING.BRUTOS P/PAG. ELECTR.                            0000000000000000000000GC109532272548000000012623880EATTUR    101DGR INGRESOS BRUTOS                                         20221107GCGASTO CORRIENTEOGA        
00719788752022110700000043TG0000000047810000000000000000000901D.G.R. ING.BRUTOS P/PAG. ELECTR.                            0000000000000000000000GC109554272549000000004292480EATTUR    101DGR INGRESOS BRUTOS                                         20221107GCGASTO CORRIENTEOGA        
00719788752022110700000043TG0000000047810000000000000000000901D.G.R. ING.BRUTOS P/PAG. ELECTR.                            0000000000000000000000GC114262272550000000000825080EATTUR    101DGR INGRESOS BRUTOS                                         20221107GCGASTO CORRIENTEOGA        
00719788752022110700000044NR0000000000000000000000000000009903RET. IMP. GANANCIAS --PROVEEDORES Y CONTRATISTAS - AFIP     0000000000000000000000GC109501272555000000011886080EATTUR    402RET. IMP. GANANCIAS --PROVEEDORES Y CONTRATISTAS - AFIP     20221107GCGASTO CORRIENTEOGA        
00719788752022110700000045NR0000000000000000000000000000000904S.G.P. SIST. PENS. JUB. RETENC. PERSONAL                    0000000000000000000000GC109501272559000000012660080EATTUR    409RES. GRAL 1784-SUSS-PROVEEDORES                             20221107GCGASTO CORRIENTEOGA        
00719788752022110700000046TG0000000047820000000000000000009133TRIBUTO DE EMERGENCIA MUNICIPAL- TEM                        0000000000000000000000GC109501272575000000015825080EATTUR    133TRIBUTO ECONOMICO MUNICIPAL- TEM                            20221107GCGASTO CORRIENTEOGA        
00719788752022110700000046TG0000000047820000000000000000009133TRIBUTO DE EMERGENCIA MUNICIPAL- TEM                        0000000000000000000000GC109532272576000000004508580EATTUR    133TRIBUTO ECONOMICO MUNICIPAL- TEM                            20221107GCGASTO CORRIENTEOGA        
00719788752022120600000048NR0000000000000000000000000000009133TRIBUTO DE EMERGENCIA MUNICIPAL- TEM                        0000000000000000000000GC128875307943000000050000080EATTUR    133TRIBUTO ECONOMICO MUNICIPAL- TEM                            20221206GCGASTO CORRIENTEOGA        
00719788752022120100000047NR0000000000000000000000027258444081AYBAR CECILIA MARIA                                         0000000000000000000000GC128875303024000001950000080EATTUR    000                                                            20221201GCGASTO CORRIENTEOGA        
00719789812022110100001509TG0000000047570000000000020325019639PIQUE JUAN MANUEL                                           0000000000000000000000GC115523268855000000255000080EATTUR    000                                                            20221101GCGASTO CORRIENTEOGA        
00719789812022110100001509TG0000000047570000000000020325019639PIQUE JUAN MANUEL                                           0000000000000000000000GC115529268856000000255000080EATTUR    000                                                            20221101GCGASTO CORRIENTEOGA        
00719789812022110100001509TG0000000047570000000000020325019639PIQUE JUAN MANUEL                                           0000000000000000000000GC115542268857000000206518280EATTUR    000                                                            20221101GCGASTO CORRIENTEOGA        
00719789812022110100001510NR0000000000000000000000030710570104CLUB TUCUMANO DE ENDURO Y RESCATE                           0000000000000000000000GC115579268969000001600000080EATTUR    000                                                            20221101GCGASTO CORRIENTEOGA        
00719789812022110100001511NR0000000000000000000000030675245815MUNICIPALIDAD DE CONCEPCION                                 0000000000000000000000GC115602269004000000600000080EATTUR    000                                                            20221101GCGASTO CORRIENTEOGA        
00719789812022110100001512NR0000000000000000000000030675266243COMUNA RURAL TACO RALO                                      0000000000000000000000GC115624269005000000500000080EATTUR    000                                                            20221101GCGASTO CORRIENTEOGA        
00719789812022110100001513NR0000000000000000000000030685683713COMUNA RURAL DE CHOROMORO                                   0000000000000000000000GC115635269009000000600000080EATTUR    000                                                            20221101GCGASTO CORRIENTEOGA        
00719789812022110100001514NR0000000000000000000000020286810684RIOS DIEGO ALBERTO                                          0000000000000000000000GC115760269106000000201160080EATTUR    000                                                            20221101GCGASTO CORRIENTEOGA        
00719789812022110100001515NR0000000000000000000000030554542960ATENOR HERMANOS S.R.L.                                      0000000000000000000000GC115833269115000000332500080EATTUR    000                                                            20221101GCGASTO CORRIENTEOGA        
00719789812022110100001516NR0000000000000000000000030714014346NORTE DISTRIBUCIONES S.R.L.                                 0000000000000000000000GC115863269121000000705754980EATTUR    000                                                            20221101GCGASTO CORRIENTEOGA        
00719789812022110100001519NR0000000000000000000000020224295112REY JOSE ADOLFO                                             0000000000000000000000GC116089269358000000279000080EATTUR    000                                                            20221101GCGASTO CORRIENTEOGA        
00719789812022110100001520NR0000000000000000000000030709204617ENTE AUTARQUICO TUCUMAN TURISMO                             0000000000000000000000GC116231269849000021304878480EATTUR    000                                                            20221101GCGASTO CORRIENTEOGA        
00719789812022110100001521NR0000000000000000000000030500010084BANCO MACRO SOCIEDAD ANONIMA                                0000000000000000000000GC116234269853000000162478880EATTUR    000                                                            20221101GCGASTO CORRIENTEOGA        
00719789812022110100001522NR0000000000000000000000030709204617ENTE AUTARQUICO TUCUMAN TURISMO                             0000000000000000000000GC116237269856000021687440180EATTUR    000                                                            20221101GCGASTO CORRIENTEOGA        
00719789812022110100001523NR0000000000000000000000030500010084BANCO MACRO SOCIEDAD ANONIMA                                0000000000000000000000GC116239269862000000166813080EATTUR    000                                                            20221101GCGASTO CORRIENTEOGA        
00719789812022111100001566NR0000000000000000000000030529403522CASTILLO S.A.C.I.F.I.A.                                     0000000000000000000000GC121306279779000001609875080EATTUR    000                                                            20221111GCGASTO CORRIENTEOGA        
00719789812022111100001567NR0000000000000000000000030545010859GRANDES BAZARES DEL NORTE S.A.                              0000000000000000000000GC121327279782000000828553980EATTUR    000                                                            20221111GCGASTO CORRIENTEOGA        
00719789812022111100001568NR0000000000000000000000030675353944FUAD ASFOURA E HIJOS S.A.C.I.A.F.I.                         0000000000000000000000GC121336279787000000664125080EATTUR    000                                                            20221111GCGASTO CORRIENTEOGA        
00719789812022111100001569NR0000000000000000000000030675353944FUAD ASFOURA E HIJOS S.A.C.I.A.F.I.                         0000000000000000000000GC121378279794000000049250080EATTUR    000                                                            20221111GCGASTO CORRIENTEOGA        
00719789812022111100001570NR0000000000000000000000030709204617ENTE AUTARQUICO TUCUMAN TURISMO                             0000000000000000000000AF019319279851000002000000080EATTUR    202ANTICIPO DE VIATICOS                                        20221111AFANTICIPO                  
00719789812022111700001587NR0000000000000000000000020272870196OLMEDO RODRIGO SEBASTIAN                                    0000000000000000000000GC123612286360000000427500080EATTUR    000                                                            20221117GCGASTO CORRIENTEOGA        
00719789812022111700001588NR0000000000000000000000030712546847PAMPENORTE S.R.L.                                           0000000000000000000000GC123640286437000000618393880EATTUR    000                                                            20221117GCGASTO CORRIENTEOGA        
00719789812022111700001589NR0000000000000000000000030712087486COOPERATIVA DE TRABAJO SANTA QUIARA LTDA                    0000000000000000000000GC123685286841000002593585380EATTUR    000                                                            20221117GCGASTO CORRIENTEOGA        
00719789812022111700001590NR0000000000000000000000030712087486COOPERATIVA DE TRABAJO SANTA QUIARA LTDA                    0000000000000000000000GC123715287202000004430934080EATTUR    000                                                            20221117GCGASTO CORRIENTEOGA        
00719789812022111700001591NR0000000000000000000000033715109099TODOLANDIA S.R.L.                                           0000000000000000000000GC123797287606000000010678080EATTUR    000                                                            20221117GCGASTO CORRIENTEOGA        
00719789812022111700001592NR0000000000000000000000030502755206S.A. RODRIGUEZ HNOS. C.I.F.A.                               0000000000000000000000GC123793287615000000039892580EATTUR    000                                                            20221117GCGASTO CORRIENTEOGA        
00719789812022111700001594NR0000000000000000000000030707592660CIAGESER S.A                                                0000000000000000000000GC120353287830000000588672680EATTUR    000                                                            20221117GCGASTO CORRIENTEOGA        
00719789812022111700001598NR0000000000000000000000030710392826VIDEO Y COMUNICACION SRL                                    0000000000000000000000GC124025288496000000438600080EATTUR    000                                                            20221117GCGASTO CORRIENTEOGA        
00719789812022111700001599NR0000000000000000000000023140277509SIERRA MANUEL ERNESTO                                       0000000000000000000000GC124010288510000000741434080EATTUR    000                                                            20221117GCGASTO CORRIENTEOGA        
00719789812022111700001600NR0000000000000000000000030612790813COMPAï¿½IA DE CIRUITO CERRADOS S.A.                           0000000000000000000000GC124000288644000000409464080EATTUR    000                                                            20221117GCGASTO CORRIENTEOGA        
00719789812022111700001601NR0000000000000000000000030710243731MKT NETWORK S.A.                                            0000000000000000000000GC123978288649000014878284080EATTUR    000                                                            20221117GCGASTO CORRIENTEOGA        
00719789812022111700001602NR0000000000000000000000020347643077DIBE JORGE EMIR                                             0000000000000000000000GC123951288664000000591636080EATTUR    000                                                            20221117GCGASTO CORRIENTEOGA        
00719789812022111700001603NR0000000000000000000000030633949227INSTITUTO DE PREVISION Y SEGURIDAD SOCIAL DE LA PCIA.       0000000000000000000000GC123812288718000000135000080EATTUR    000                                                            20221117GCGASTO CORRIENTEOGA        
00719789812022111700001604NR0000000000000000000000030517999551CAJA POPULAR DE AHORROS DE LA PROVINCIA DE TUCUMAN          0000000000000000000000GC123814288987000000038550680EATTUR    000                                                            20221117GCGASTO CORRIENTEOGA        
00719789812022112200001615NR0000000000000000000000030709204617ENTE AUTARQUICO TUCUMAN TURISMO                             0000000000000000000000AF019790291201000000283920080EATTUR    202ANTICIPO DE VIATICOS                                        20221122AFANTICIPO                  
00719789812022111400001571NR0000000000000000000000030709204617ENTE AUTARQUICO TUCUMAN TURISMO                             0000000000000000000000AF019931280002000000400000080EATTUR    217ANTICIPOS PARA GASTOS DETERMINADOS                          20221114AFANTICIPO                  
00719789812022111400001572NR0000000000000000000000030709204617ENTE AUTARQUICO TUCUMAN TURISMO                             0000000000000000000000AF019916280062000000060000080EATTUR    217ANTICIPOS PARA GASTOS DETERMINADOS                          20221114AFANTICIPO                  
00719789812022111429355889TG0000000048920000000000030709204617ENTE AUTARQUICO TUCUMAN TURISMO                             0000000000000000000000AF019665281694000000283920080EATTUR    202ANTICIPO DE VIATICOS                                        20221114AFANTICIPO                  
00719789812022111429355889TG0000000048920000000000030709204617ENTE AUTARQUICO TUCUMAN TURISMO                             0000000000000000000000AF019666281695000000350000080EATTUR    217ANTICIPOS PARA GASTOS DETERMINADOS                          20221114AFANTICIPO                  
00719789812022110900001550NR0000000000000000000000027282617752ZAMBON GABRIELA                                             0000000000000000000000GC119705276026000001058054380EATTUR    000                                                            20221109GCGASTO CORRIENTEOGA        
00719789812022110900001551NR0000000000000000000000030711459754VP INVERSORA SOCIEDAD ANONIMA                               0000000000000000000000GC119856276462000001995742880EATTUR    000                                                            20221109GCGASTO CORRIENTEOGA        
00719789812022110900001552NR0000000000000000000000030715017829A4  INDUSTRIAS  GRAFICAS   S.A                              0000000000000000000000GC119923276760000000085813280EATTUR    000                                                            20221109GCGASTO CORRIENTEOGA        
00719789812022110900001553NR0000000000000000000000030639652382MUNICIPALIDAD DE JUAN BAUTISTA  ALBERDI                     0000000000000000000000GC119949276811000000500000080EATTUR    000                                                            20221109GCGASTO CORRIENTEOGA        
00719789812022110900001554NR0000000000000000000000030710614055FUNDACION INFOTO INFORMACION Y FOTOGRAFIA                   0000000000000000000000GC119965277075000001200000080EATTUR    000                                                            20221109GCGASTO CORRIENTEOGA        
00719789812022110900001555NR0000000000000000000000020327410165FERNANDEZ CARLOS MARCELO                                    0000000000000000000000GC119995277112000001049609080EATTUR    000                                                            20221109GCGASTO CORRIENTEOGA        
00719789812022112200001619NR0000000000000000000000030709204617ENTE AUTARQUICO TUCUMAN TURISMO                             0000000000000000000000GC124950291818000000008000080EATTUR    000                                                            20221122GCGASTO CORRIENTEOGA        
00719789812022112200001620NR0000000000000000000000030708061316BUSCOR SRL.                                                 0000000000000000000000GC124959291825000001363434080EATTUR    000                                                            20221122GCGASTO CORRIENTEOGA        
00719789812022112200001622NR0000000000000000000000030657611936SILVA S.R.L.                                                0000000000000000000000GC125054292043000000765458980EATTUR    000                                                            20221122GCGASTO CORRIENTEOGA        
00719789812022112300001626NR0000000000000000000000027242622184ARREGUEZ FERNANDEZ KARINA VALERIA                           0000000000000000000000GC125681293840000005770542880EATTUR    000                                                            20221123GCGASTO CORRIENTEOGA        
00719789812022111529355891NR0000000000000000000000030709204617ENTE AUTARQUICO TUCUMAN TURISMO                             0000000000000000000000AF019905283675000000700000080EATTUR    217ANTICIPOS PARA GASTOS DETERMINADOS                          20221115AFANTICIPO                  
00719789812022112300001627NR0000000000000000000000027339732413SANDOVAL IRMA SUSANA                                        0000000000000000000000GC125679293853000001710000080EATTUR    000                                                            20221123GCGASTO CORRIENTEOGA        
00719789812022112200001613NR0000000000000000000000030641405554AEROLINEAS ARGENTINAS SA                                    0000000000000000000000GC124775291159000004293150180EATTUR    000                                                            20221122GCGASTO CORRIENTEOGA        
00719789812022112200001614NR0000000000000000000000030639453738TELECOM ARGENTINA S.A.                                      0000000000000000000000GC124803291173000000005535380EATTUR    000                                                            20221122GCGASTO CORRIENTEOGA        
00719789812022112200001616NR0000000000000000000000030663288497AMX ARGENTINA SOCIEDAD ANONIMA                              0000000000000000000000GC124819291325000000088889580EATTUR    000                                                            20221122GCGASTO CORRIENTEOGA        
00719789812022112200001617NR0000000000000000000000033644432659PATSA TURISMO S.R.L.                                        0000000000000000000000GC124890291524000000508950080EATTUR    000                                                            20221122GCGASTO CORRIENTEOGA        
00719789812022112200001618NR0000000000000000000000023362248019FERNANDEZ LOBO ALFREDO MAXIMILIANO                          0000000000000000000000GC124928291673000000693750080EATTUR    000                                                            20221122GCGASTO CORRIENTEOGA        
00719789812022112200001621NR0000000000000000000000030707281169QUEï¿½OA S.A.                                                 0000000000000000000000GC111864291972000000698306380EATTUR    000                                                            20221122GCGASTO CORRIENTEOGA        
00719789812022112200001623NR0000000000000000000000030707281169QUEï¿½OA S.A.                                                 0000000000000000000000GC116612292051000002137601280EATTUR    000                                                            20221122GCGASTO CORRIENTEOGA        
00719789812022112200001624NR0000000000000000000000020272870196OLMEDO RODRIGO SEBASTIAN                                    0000000000000000000000GC125089292149000000427500080EATTUR    000                                                            20221122GCGASTO CORRIENTEOGA        
00719789812022112500001639NR0000000000000000000000030709204617ENTE AUTARQUICO TUCUMAN TURISMO                             0000000000000000000000AF019844297078000000800000080EATTUR    217ANTICIPOS PARA GASTOS DETERMINADOS                          20221125AFANTICIPO                  
00719789812022111700001605NR0000000000000000000000030709204617ENTE AUTARQUICO TUCUMAN TURISMO                             0000000000000000000000AF020321289238000000600000080EATTUR    217ANTICIPOS PARA GASTOS DETERMINADOS                          20221117AFANTICIPO                  
00719789812022111700001606NR0000000000000000000000030709204617ENTE AUTARQUICO TUCUMAN TURISMO                             0000000000000000000000AF020362289241000000800000080EATTUR    217ANTICIPOS PARA GASTOS DETERMINADOS                          20221117AFANTICIPO                  
00719789812022111000001561NR0000000000000000000000030709204617ENTE AUTARQUICO TUCUMAN TURISMO                             0000000000000000000000AF019810278180000000600000080EATTUR    217ANTICIPOS PARA GASTOS DETERMINADOS                          20221110AFANTICIPO                  
00719789812022111000001562NR0000000000000000000000030709204617ENTE AUTARQUICO TUCUMAN TURISMO                             0000000000000000000000AF019829278185000002460000080EATTUR    217ANTICIPOS PARA GASTOS DETERMINADOS                          20221110AFANTICIPO                  
00719789812022111000001564NR0000000000000000000000030709204617ENTE AUTARQUICO TUCUMAN TURISMO                             0000000000000000000000AF019842278207000005430000080EATTUR    217ANTICIPOS PARA GASTOS DETERMINADOS                          20221110AFANTICIPO                  
00719789812022110300001526NR0000000000000000000000030709204617ENTE AUTARQUICO TUCUMAN TURISMO                             0000000000000000000000AF019407270599000000248430080EATTUR    202ANTICIPO DE VIATICOS                                        20221103AFANTICIPO                  
00719789812022110300001524NR0000000000000000000000027336115456CORBALANMARIA FERNANDA                                      0000000000000000000000FF001621270164000002374461580EATTUR    000                                                            20221103FFFONDO FIJO                
00719789812022110300001525NR0000000000000000000000030707281169QUEï¿½OA S.A.                                                 0000000000000000000000GC116596270499000021359060080EATTUR    000                                                            20221103GCGASTO CORRIENTEOGA        
00719789812022110300001529NR0000000000000000000000030707281169QUEï¿½OA S.A.                                                 0000000000000000000000GC116702270711000017869078580EATTUR    000                                                            20221103GCGASTO CORRIENTEOGA        
00719789812022110300001530NR0000000000000000000000030707539212SISTEMA COMUNICACIONALES S.A.                               0000000000000000000000GC116877270760000001265607080EATTUR    000                                                            20221103GCGASTO CORRIENTEOGA        
00719789812022110400001531NR0000000000000000000000030709204617ENTE AUTARQUICO TUCUMAN TURISMO                             0000000000000000000000GC117221271143000000008000080EATTUR    000                                                            20221104GCGASTO CORRIENTEOGA        
00719789812022110400001532NR0000000000000000000000027211724795RODRIGUEZ,  ANA PATRICIA                                    0000000000000000000000GC117237271160000000074600080EATTUR    000                                                            20221104GCGASTO CORRIENTEOGA        
00719789812022110400001533NR0000000000000000000000030717324419CLUB DE AMIGOS CITROEN TUCUMAN ASOC CIVIL                   0000000000000000000000GC117261271191000000800000080EATTUR    000                                                            20221104GCGASTO CORRIENTEOGA        
00719789812022110400001534NR0000000000000000000000020286810684RIOS DIEGO ALBERTO                                          0000000000000000000000GC117303271204000000894794080EATTUR    000                                                            20221104GCGASTO CORRIENTEOGA        
00719789812022110400001538NR0000000000000000000000023140277509SIERRA MANUEL ERNESTO                                       0000000000000000000000GC117788272091000000741434080EATTUR    000                                                            20221104GCGASTO CORRIENTEOGA        
00719789812022111700001593TG0000000050040000000000000000000901D.G.R. ING.BRUTOS P/PAG. ELECTR.                            0000000000000000000000GC115542287802000000026328780EATTUR    101DGR INGRESOS BRUTOS                                         20221117GCGASTO CORRIENTEOGA        
00719789812022111700001593TG0000000050040000000000000000000901D.G.R. ING.BRUTOS P/PAG. ELECTR.                            0000000000000000000000GC115760287803000000007490080EATTUR    101DGR INGRESOS BRUTOS                                         20221117GCGASTO CORRIENTEOGA        
00719789812022111700001593TG0000000050040000000000000000000901D.G.R. ING.BRUTOS P/PAG. ELECTR.                            0000000000000000000000GC115833287804000000008750080EATTUR    101DGR INGRESOS BRUTOS                                         20221117GCGASTO CORRIENTEOGA        
00719789812022111700001593TG0000000050040000000000000000000901D.G.R. ING.BRUTOS P/PAG. ELECTR.                            0000000000000000000000GC115863287805000000018402980EATTUR    101DGR INGRESOS BRUTOS                                         20221117GCGASTO CORRIENTEOGA        
00719789812022111700001593TG0000000050040000000000000000000901D.G.R. ING.BRUTOS P/PAG. ELECTR.                            0000000000000000000000GC116033287806000000606415180EATTUR    101DGR INGRESOS BRUTOS                                         20221117GCGASTO CORRIENTEOGA        
00719789812022111700001593TG0000000050040000000000000000000901D.G.R. ING.BRUTOS P/PAG. ELECTR.                            0000000000000000000000GC116089287807000000021000080EATTUR    101DGR INGRESOS BRUTOS                                         20221117GCGASTO CORRIENTEOGA        
00719789812022111700001593TG0000000050040000000000000000000901D.G.R. ING.BRUTOS P/PAG. ELECTR.                            0000000000000000000000GC116596287808000000611699780EATTUR    101DGR INGRESOS BRUTOS                                         20221117GCGASTO CORRIENTEOGA        
00719789812022111700001593TG0000000050040000000000000000000901D.G.R. ING.BRUTOS P/PAG. ELECTR.                            0000000000000000000000GC116702287809000000519070480EATTUR    101DGR INGRESOS BRUTOS                                         20221117GCGASTO CORRIENTEOGA        
00719789812022111700001593TG0000000050040000000000000000000901D.G.R. ING.BRUTOS P/PAG. ELECTR.                            0000000000000000000000GC117303287810000000033530080EATTUR    101DGR INGRESOS BRUTOS                                         20221117GCGASTO CORRIENTEOGA        
00719789812022111700001593TG0000000050040000000000000000000901D.G.R. ING.BRUTOS P/PAG. ELECTR.                            0000000000000000000000GC119212287811000001134857080EATTUR    101DGR INGRESOS BRUTOS                                         20221117GCGASTO CORRIENTEOGA        
00719789812022111700001593TG0000000050040000000000000000000901D.G.R. ING.BRUTOS P/PAG. ELECTR.                            0000000000000000000000GC119523287812000000016650080EATTUR    101DGR INGRESOS BRUTOS                                         20221117GCGASTO CORRIENTEOGA        
00719789812022111700001593TG0000000050040000000000000000000901D.G.R. ING.BRUTOS P/PAG. ELECTR.                            0000000000000000000000GC119557287813000000008190080EATTUR    101DGR INGRESOS BRUTOS                                         20221117GCGASTO CORRIENTEOGA        
00719789812022111700001593TG0000000050040000000000000000000901D.G.R. ING.BRUTOS P/PAG. ELECTR.                            0000000000000000000000GC119595287814000000007150080EATTUR    101DGR INGRESOS BRUTOS                                         20221117GCGASTO CORRIENTEOGA        
00719789812022111700001593TG0000000050040000000000000000000901D.G.R. ING.BRUTOS P/PAG. ELECTR.                            0000000000000000000000GC119705287815000000018845780EATTUR    101DGR INGRESOS BRUTOS                                         20221117GCGASTO CORRIENTEOGA        
00719789812022111700001593TG0000000050040000000000000000000901D.G.R. ING.BRUTOS P/PAG. ELECTR.                            0000000000000000000000GC119923287816000000001306880EATTUR    101DGR INGRESOS BRUTOS                                         20221117GCGASTO CORRIENTEOGA        
00719789812022111700001593TG0000000050040000000000000000000901D.G.R. ING.BRUTOS P/PAG. ELECTR.                            0000000000000000000000GC120353287817000000015349980EATTUR    101DGR INGRESOS BRUTOS                                         20221117GCGASTO CORRIENTEOGA        
00719789812022111700001593TG0000000050040000000000000000000901D.G.R. ING.BRUTOS P/PAG. ELECTR.                            0000000000000000000000GC120448287818000000024535080EATTUR    101DGR INGRESOS BRUTOS                                         20221117GCGASTO CORRIENTEOGA        
00719789812022111700001593TG0000000050040000000000000000000901D.G.R. ING.BRUTOS P/PAG. ELECTR.                            0000000000000000000000GC120557287819000000049000080EATTUR    101DGR INGRESOS BRUTOS                                         20221117GCGASTO CORRIENTEOGA        
00719789812022111700001593TG0000000050040000000000000000000901D.G.R. ING.BRUTOS P/PAG. ELECTR.                            0000000000000000000000GC120682287820000000019600080EATTUR    101DGR INGRESOS BRUTOS                                         20221117GCGASTO CORRIENTEOGA        
00719789812022111700001595TG0000000050060000000000000000009903RET. IMP. GANANCIAS --PROVEEDORES Y CONTRATISTAS - AFIP     0000000000000000000000GC115950287956000000029974780EATTUR    402RET. IMP. GANANCIAS --PROVEEDORES Y CONTRATISTAS - AFIP     20221117GCGASTO CORRIENTEOGA        
00719789812022111700001595TG0000000050060000000000000000009903RET. IMP. GANANCIAS --PROVEEDORES Y CONTRATISTAS - AFIP     0000000000000000000000GC116033287957000000356135680EATTUR    402RET. IMP. GANANCIAS --PROVEEDORES Y CONTRATISTAS - AFIP     20221117GCGASTO CORRIENTEOGA        
00719789812022111700001595TG0000000050060000000000000000009903RET. IMP. GANANCIAS --PROVEEDORES Y CONTRATISTAS - AFIP     0000000000000000000000GC116596287958000000359629580EATTUR    402RET. IMP. GANANCIAS --PROVEEDORES Y CONTRATISTAS - AFIP     20221117GCGASTO CORRIENTEOGA        
00719789812022111700001595TG0000000050060000000000000000009903RET. IMP. GANANCIAS --PROVEEDORES Y CONTRATISTAS - AFIP     0000000000000000000000GC116702287959000000298387080EATTUR    402RET. IMP. GANANCIAS --PROVEEDORES Y CONTRATISTAS - AFIP     20221117GCGASTO CORRIENTEOGA        
00719789812022111700001595TG0000000050060000000000000000009903RET. IMP. GANANCIAS --PROVEEDORES Y CONTRATISTAS - AFIP     0000000000000000000000GC116877287960000000012384080EATTUR    402RET. IMP. GANANCIAS --PROVEEDORES Y CONTRATISTAS - AFIP     20221117GCGASTO CORRIENTEOGA        
00719789812022111700001595TG0000000050060000000000000000009903RET. IMP. GANANCIAS --PROVEEDORES Y CONTRATISTAS - AFIP     0000000000000000000000GC117303287961000000005726080EATTUR    402RET. IMP. GANANCIAS --PROVEEDORES Y CONTRATISTAS - AFIP     20221117GCGASTO CORRIENTEOGA        
00719789812022111700001595TG0000000050060000000000000000009903RET. IMP. GANANCIAS --PROVEEDORES Y CONTRATISTAS - AFIP     0000000000000000000000GC119212287962000000310810880EATTUR    402RET. IMP. GANANCIAS --PROVEEDORES Y CONTRATISTAS - AFIP     20221117GCGASTO CORRIENTEOGA        
00719789812022111700001595TG0000000050060000000000000000009903RET. IMP. GANANCIAS --PROVEEDORES Y CONTRATISTAS - AFIP     0000000000000000000000GC119856287963000000027706080EATTUR    402RET. IMP. GANANCIAS --PROVEEDORES Y CONTRATISTAS - AFIP     20221117GCGASTO CORRIENTEOGA        
00719789812022111700001595TG0000000050060000000000000000009903RET. IMP. GANANCIAS --PROVEEDORES Y CONTRATISTAS - AFIP     0000000000000000000000GC119995287964000000008266080EATTUR    402RET. IMP. GANANCIAS --PROVEEDORES Y CONTRATISTAS - AFIP     20221117GCGASTO CORRIENTEOGA        
00719789812022111700001595TG0000000050060000000000000000009903RET. IMP. GANANCIAS --PROVEEDORES Y CONTRATISTAS - AFIP     0000000000000000000000GC120557287965000000014566080EATTUR    402RET. IMP. GANANCIAS --PROVEEDORES Y CONTRATISTAS - AFIP     20221117GCGASTO CORRIENTEOGA        
00719789812022111700001596TG0000000050070000000000000000000904S.G.P. SIST. PENS. JUB. RETENC. PERSONAL                    0000000000000000000000GC115863287970000000007361180EATTUR    409RES. GRAL 1784-SUSS-PROVEEDORES                             20221117GCGASTO CORRIENTEOGA        
00719789812022111700001596TG0000000050070000000000000000000904S.G.P. SIST. PENS. JUB. RETENC. PERSONAL                    0000000000000000000000GC115950287971000000021704380EATTUR    409RES. GRAL 1784-SUSS-PROVEEDORES                             20221117GCGASTO CORRIENTEOGA        
00719789812022111700001596TG0000000050070000000000000000000904S.G.P. SIST. PENS. JUB. RETENC. PERSONAL                    0000000000000000000000GC116877287972000000012909080EATTUR    409RES. GRAL 1784-SUSS-PROVEEDORES                             20221117GCGASTO CORRIENTEOGA        
00719789812022111700001596TG0000000050070000000000000000000904S.G.P. SIST. PENS. JUB. RETENC. PERSONAL                    0000000000000000000000GC119212287973000000162122480EATTUR    409RES. GRAL 1784-SUSS-PROVEEDORES                             20221117GCGASTO CORRIENTEOGA        
00719789812022111700001596TG0000000050070000000000000000000904S.G.P. SIST. PENS. JUB. RETENC. PERSONAL                    0000000000000000000000GC119856287974000000020570080EATTUR    409RES. GRAL 1784-SUSS-PROVEEDORES                             20221117GCGASTO CORRIENTEOGA        
00719789812022111700001596TG0000000050070000000000000000000904S.G.P. SIST. PENS. JUB. RETENC. PERSONAL                    0000000000000000000000GC120353287975000000006139980EATTUR    409RES. GRAL 1784-SUSS-PROVEEDORES                             20221117GCGASTO CORRIENTEOGA        
00719789812022111700001596TG0000000050070000000000000000000904S.G.P. SIST. PENS. JUB. RETENC. PERSONAL                    0000000000000000000000GC120682287976000000005600080EATTUR    409RES. GRAL 1784-SUSS-PROVEEDORES                             20221117GCGASTO CORRIENTEOGA        
00719789812022111700001597TG0000000050080000000000000000009133TRIBUTO DE EMERGENCIA MUNICIPAL- TEM                        0000000000000000000000GC115542287996000000009403180EATTUR    133TRIBUTO ECONOMICO MUNICIPAL- TEM                            20221117GCGASTO CORRIENTEOGA        
00719789812022111700001597TG0000000050080000000000000000009133TRIBUTO DE EMERGENCIA MUNICIPAL- TEM                        0000000000000000000000GC115760287997000000005350080EATTUR    133TRIBUTO ECONOMICO MUNICIPAL- TEM                            20221117GCGASTO CORRIENTEOGA        
00719789812022111700001597TG0000000050080000000000000000009133TRIBUTO DE EMERGENCIA MUNICIPAL- TEM                        0000000000000000000000GC115833287998000000008750080EATTUR    133TRIBUTO ECONOMICO MUNICIPAL- TEM                            20221117GCGASTO CORRIENTEOGA        
00719789812022111700001597TG0000000050080000000000000000009133TRIBUTO DE EMERGENCIA MUNICIPAL- TEM                        0000000000000000000000GC115863287999000000004600780EATTUR    133TRIBUTO ECONOMICO MUNICIPAL- TEM                            20221117GCGASTO CORRIENTEOGA        
00719789812022111700001597TG0000000050080000000000000000009133TRIBUTO DE EMERGENCIA MUNICIPAL- TEM                        0000000000000000000000GC115950288000000000013565280EATTUR    133TRIBUTO ECONOMICO MUNICIPAL- TEM                            20221117GCGASTO CORRIENTEOGA        
00719789812022111700001597TG0000000050080000000000000000009133TRIBUTO DE EMERGENCIA MUNICIPAL- TEM                        0000000000000000000000GC117303288001000000023950080EATTUR    133TRIBUTO ECONOMICO MUNICIPAL- TEM                            20221117GCGASTO CORRIENTEOGA        
00719789812022111700001597TG0000000050080000000000000000009133TRIBUTO DE EMERGENCIA MUNICIPAL- TEM                        0000000000000000000000GC119523288002000000016650080EATTUR    133TRIBUTO ECONOMICO MUNICIPAL- TEM                            20221117GCGASTO CORRIENTEOGA        
00719789812022111700001597TG0000000050080000000000000000009133TRIBUTO DE EMERGENCIA MUNICIPAL- TEM                        0000000000000000000000GC119856288003000000012981280EATTUR    133TRIBUTO ECONOMICO MUNICIPAL- TEM                            20221117GCGASTO CORRIENTEOGA        
00719789812022111700001597TG0000000050080000000000000000009133TRIBUTO DE EMERGENCIA MUNICIPAL- TEM                        0000000000000000000000GC119995288004000000027125080EATTUR    133TRIBUTO ECONOMICO MUNICIPAL- TEM                            20221117GCGASTO CORRIENTEOGA        
00719789812022111700001597TG0000000050080000000000000000009133TRIBUTO DE EMERGENCIA MUNICIPAL- TEM                        0000000000000000000000GC120353288005000000003837480EATTUR    133TRIBUTO ECONOMICO MUNICIPAL- TEM                            20221117GCGASTO CORRIENTEOGA        
00719789812022111700001597TG0000000050080000000000000000009133TRIBUTO DE EMERGENCIA MUNICIPAL- TEM                        0000000000000000000000GC120448288006000000017525080EATTUR    133TRIBUTO ECONOMICO MUNICIPAL- TEM                            20221117GCGASTO CORRIENTEOGA        
00719789812022111700001597TG0000000050080000000000000000009133TRIBUTO DE EMERGENCIA MUNICIPAL- TEM                        0000000000000000000000GC120557288007000000035000080EATTUR    133TRIBUTO ECONOMICO MUNICIPAL- TEM                            20221117GCGASTO CORRIENTEOGA        
